:020000040000FA
:100000000C9462000C948A000C948A000C948A0070
:100010000C948A000C948A000C948A000C948A0038
:100020000C948A000C948A000C948A000C94680347
:100030000C948A000C948A000C948A000C948A0018
:100040000C94C6020C948A000C9436030C94100392
:100050000C948A000C948A000C948A000C948A00F8
:100060000C948A000C948A000000000023002600F3
:10007000290000000000240027002A0000000000E2
:10008000250028002B0004040404040404040202D4
:100090000202020203030303030301020408102007
:1000A0004080010204081020010204081020000012
:1000B0000008000201000003040700000000000027
:1000C0000000690411241FBECFEFD8E0DEBFCDBF12
:1000D00011E0A0E0B1E0E6E9F1E102C005900D9287
:1000E000A235B107D9F722E0A2E5B1E001C01D9227
:1000F000A532B207E1F710E0C2E6D0E004C02197D4
:10010000FE010E94C308C136D107C9F70E94C60488
:100110000C94C9080C940000E0912202EC3088F5A0
:100120004091230228E830E0241B310947FD339534
:10013000220F331F220F331F8217930784F0409141
:10014000240228E532E0241B310947FD3395220FB4
:10015000331F220F331F821793070CF49C01225088
:100160003109220F331F4FB7F8948E2F90E0FC0116
:10017000EE0FFF1FE80FF91FE350FE4F328321837C
:100180004FBF0895833081F028F4813099F0823098
:10019000A9F008958730A9F08830C9F08430B1F40F
:1001A000809180008F7D03C0809180008F77809345
:1001B0008000089584B58F7784BD089584B58F7DC0
:1001C000FBCF8091B0008F778093B000089580912D
:1001D000B0008F7DF9CF1F93CF93DF93282F30E0AE
:1001E000F901E255FF4F8491F901E656FF4FD49192
:1001F000F901EA57FF4FC491CC23A9F0162F8111C2
:100200000E94C200EC2FF0E0EE0FFF1FE458FF4FFA
:10021000A591B4918FB7F894EC91111108C0D095C5
:10022000DE23DC938FBFDF91CF911F910895DE2BEA
:10023000F8CFCF93DF9390E0FC01E656FF4F249177
:100240008A579F4FFC0184918823C9F090E0880F62
:10025000991FFC01EE58FF4FA591B491FC01E458A1
:10026000FF4FC591D49161110DC09FB7F8948C9147
:10027000209582238C938881282328839FBFDF9138
:10028000CF910895623051F49FB7F8943C91822F3A
:10029000809583238C93E8812E2BEFCF8FB7F89432
:1002A000EC912E2B2C938FBFEACF3FB7F89480911F
:1002B0005C0190915D01A0915E01B0915F0126B556
:1002C000A89B05C02F3F19F00196A11DB11D3FBF8E
:1002D000BA2FA92F982F8827BC01CD01620F711D5D
:1002E000811D911D42E0660F771F881F991F4A9557
:1002F000D1F708958F929F92AF92BF92CF92DF92E3
:10030000EF92FF924B015C010E9455016B017C0151
:100310000E9455016C197D098E099F09683E734042
:1003200081059105A8F321E0821A9108A108B1087E
:1003300088EEC80E83E0D81EE11CF11C81149104E4
:10034000A104B10429F7FF90EF90DF90CF90BF9008
:10035000AF909F908F900895AF92BF92CF92DF920F
:10036000EF92FF920F931F93CF93DF936C017B016A
:100370008B01040F151FEB015E01AE18BF08C017FB
:10038000D10759F06991D601ED91FC910190F0816E
:10039000E02DC6010995892B79F7C501DF91CF9131
:1003A0001F910F91FF90EF90DF90CF90BF90AF9093
:1003B0000895FC01538D448D252F30E0842F90E06B
:1003C000821B930B541710F0CF9608950197089550
:1003D000FC01918D828D981761F0A28DAE0FBF2F19
:1003E000B11D5D968C91928D9F5F9F73928F90E06F
:1003F00008958FEF9FEF0895FC01918D828D9817DE
:1004000031F0828DE80FF11D858D90E008958FEF1A
:100410009FEF0895FC01918D228D892F90E0805CE3
:100420009F4F821B91098F739927089580E691E071
:100430000E940A0221E0892B09F420E0822F08950E
:1004400080E090E0892B29F00E94160281110C9423
:1004500000000895FC01A48DA80FB92FB11DA35A67
:10046000BF4F2C91848D90E001968F739927848FD4
:10047000A689B7892C93A089B1898C9183708064F7
:100480008C93938D848D981306C00288F389E02D98
:1004900080818F7D80830895EF92FF920F931F9349
:1004A000CF93DF93EC0181E0888F9B8D8C8D981327
:1004B0001AC0E889F989808185FF15C09FB7F89433
:1004C000EE89FF896083E889F9898081837080647F
:1004D00080839FBF81E090E0DF91CF911F910F91CA
:1004E000FF90EF900895F62E0B8D10E00F5F1F4FD9
:1004F0000F731127E02E8C8D8E110CC00FB607FCE8
:10050000FACFE889F989808185FFF5CFCE010E9475
:100510002A02F1CFEB8DEC0FFD2FF11DE35AFF4FB7
:10052000F0829FB7F8940B8FEA89FB898081806203
:10053000CFCFCF93DF93EC01888D8823B9F0AA89C0
:10054000BB89E889F9898C9185FD03C0808186FD8E
:100550000DC00FB607FCF7CF8C9185FFF2CF8081DD
:1005600085FFEDCFCE010E942A02E9CFDF91CF9126
:100570000895FC0101900020E9F73197AF01481B75
:10058000590BBC0180E691E00C94AC011F920F92D4
:100590000FB60F9211242F933F938F939F93AF9396
:1005A000BF938091580190915901A0915A01B09147
:1005B0005B013091570123E0230F2D3758F5019649
:1005C000A11DB11D209357018093580190935901AB
:1005D000A0935A01B0935B0180915C0190915D0101
:1005E000A0915E01B0915F010196A11DB11D8093A4
:1005F0005C0190935D01A0935E01B0935F01BF9198
:10060000AF919F918F913F912F910F900FBE0F90BF
:100610001F90189526E8230F0296A11DB11DD2CF79
:100620001F920F920FB60F9211242F933F934F9367
:100630005F936F937F938F939F93AF93BF93EF934A
:10064000FF9380E691E00E942A02FF91EF91BF9113
:10065000AF919F918F917F916F915F914F913F915A
:100660002F910F900FBE0F901F9018951F920F9211
:100670000FB60F9211242F938F939F93EF93FF93B5
:10068000E0917001F09171018081E0917601F0912B
:10069000770182FD1BC09081809179018F5F8F73FC
:1006A00020917A01821741F0E0917901F0E0E05A5F
:1006B000FE4F958F80937901FF91EF919F918F91DC
:1006C0002F910F900FBE0F901F9018958081F4CF3F
:1006D0001F920F920FB60F9211242F933F934F93B7
:1006E0005F936F937F938F939F93AF93BF93CF93BA
:1006F000DF93EF93FF9380915201C0912102D0E0EC
:1007000087FF24C0109285001092840080915201CE
:100710008F5F8093520180915201082E000C990B3B
:100720008C179D0724F4809152018C30C4F1809184
:10073000840090918500049680349C4908F47AC026
:100740008091840090918500049676C0809152013A
:10075000082E000C990B8C179D07C4F6E0915201EE
:100760008E2FEE0F990BFC01EE0FFF1FE80FF91F04
:10077000E350FE4F808186FFC9CFE09152018E2F5A
:10078000EE0F990BFC01EE0FFF1FE80FF91FE3506E
:10079000FE4F808160E08F730E94EB00B7CF209105
:1007A000840030918500E09152018E2FEE0F990B5D
:1007B000FC01EE0FFF1FE80FF91FE350FE4F818190
:1007C0009281820F931F9093890080938800E0911B
:1007D00052018E2FEE0F990BFC01EE0FFF1FE80F59
:1007E000F91FE350FE4F808186FF11C0E091520156
:1007F0008E2FEE0F990BFC01EE0FFF1FE80FF91F74
:10080000E350FE4F808161E08F730E94EB00FF9107
:10081000EF91DF91CF91BF91AF919F918F917F9198
:100820006F915F914F913F912F910F900FBE0F905D
:100830001F90189580E49CE990938900809388002C
:100840008FEF80935201E3CFCF92DF92EF92FF922E
:100850000F931F93E82FF92F05C0015011092109AB
:10086000310961F1908196239417B9F305C00150C5
:1008700011092109310911F1908196239413F7CFC1
:10088000C12CD12CE12CF12C0AC08FEFC81AD80A48
:10089000E80AF80A0C151D052E053F0579F0808140
:1008A0008623841791F36C2D7D2D8E2D9F2D1F9106
:1008B0000F91FF90EF90DF90CF90089560E070E08F
:1008C00080E090E01F910F91FF90EF90DF90CF902C
:1008D0000895109263011092620188EE93E0A0E007
:1008E000B0E08093640190936501A0936601B0939A
:1008F000670184E091E0909361018093600185EC51
:1009000090E090936D0180936C0184EC90E0909363
:100910006F0180936E0180EC90E090937101809361
:10092000700181EC90E0909373018093720182ECEE
:1009300090E0909375018093740186EC90E0909321
:100940007701809376011092790110927A011092CA
:100950007B0110927C01809121028C3098F491E00F
:10096000980F909321028093220290E0FC01EE0FF9
:10097000FF1FE80FF91FE350FE4F88EB9BE09283C7
:10098000818308958FEF809322020895CF93DF93A0
:10099000CDB7DEB7A1970FB6F894DEBF0FBECDBFBF
:1009A000789484B5826084BD84B5816084BD85B54A
:1009B000826085BD85B5816085BD80916E00816056
:1009C00080936E00109281008091810082608093FC
:1009D00081008091810081608093810080918000FE
:1009E0008160809380008091B10084608093B10029
:1009F0008091B00081608093B00080917A00846023
:100A000080937A0080917A00826080937A0080914E
:100A10007A00816080937A0080917A008068809368
:100A20007A001092C10061E082E00E94190160E04A
:100A300083E00E94190161E08DE00E94190162E0EB
:100A400089E00E94190160E082E00E94EB00E091E1
:100A50007001F091710182E08083E0916C01F0916E
:100A60006D011082E0916E01F0916F018FEC808337
:100A700010927801E0917401F091750186E0808315
:100A8000E0917201F0917301808180618083E09137
:100A90007201F0917301808188608083E09172011E
:100AA000F0917301808180688083E0917201F09100
:100AB000730180818F7D8083809122028C3008F0C9
:100AC00051C061E08AE00E94190180912202282F22
:100AD00030E0F901EE0FFF1FE20FF31FE350FE4F6E
:100AE0009081907C9A60908310922302109224024D
:100AF0002CE0622F0E94B708829FB001112430E0E1
:100B000020E0AB01420F531FFA01EE0FFF1FE40F6D
:100B1000F51FE350FE4F908196FD16C02F5F3F4FAB
:100B20002C30310571F781110FC01092800082E0E6
:100B3000809381001092850010928400B19A809178
:100B40006F00826080936F00E09122028E2F90E010
:100B5000FC01EE0FFF1FE80FF91FE350FE4F8081ED
:100B6000806480830AE0402E512C612C712C84EB30
:100B7000882E912CA12CB12C13E2212E312C61E076
:100B800082E00E94EB00C1010197F1F760E082E092
:100B90000E94EB00EDE9F0E06491E9E8F0E0849177
:100BA000E82FF0E0EE0FFF1FE859FF4F8591949179
:100BB00000E412E42FE030E0462F0E942404611587
:100BC00071058105910529F06F5F7F4F8F4F9F4F12
:100BD0009F700E94BE0726E933E44BE05DE30E946C
:100BE000220820E030E040E05FE30E9422080E94FB
:100BF0008607709356016093550182E191E00E944F
:100C0000B902C0905501D09056010D2C000CEE0891
:100C1000FF08F7FEF8C06DE280E691E00E944C020A
:100C200022273327A9012C193D094E095F0919A272
:100C3000CE0181967C01CA01B901A30192010E94F3
:100C40005507605DF70162937F012115310541056C
:100C5000510589F7E114F10419F0C7010E94B902A6
:100C60008DE191E00E94B90280E291E00E94B90218
:100C700064E670E080E090E00E947A01E7EBF0E04B
:100C80008491E3EAF0E0F490EFE8F0E0E490EE2005
:100C900009F4CFC081110E94C200EE2DF0E0EE0FEA
:100CA000FF1FE859FF4FA591B4918C91F82231E0D4
:100CB00020E009F430E0832F922F209153013091EE
:100CC00054012130310509F0B7C0892B41F410924D
:100CD00054011092530183E291E00E94B902809185
:100CE00055019091560144973CF0809153019091A9
:100CF0005401019709F07AC061E08DE00E94EB0099
:100D00008091230298E8C92ED12CC81AD10887FDFA
:100D1000D394CC0CDD1CCC0CDD1C0D2C000CEE088F
:100D2000FF088091240228E532E0281B310987FD65
:100D30003395220F331F220F331F032E000C440B59
:100D4000550B2C193D094E095F09ACE8B0E00E9433
:100D50004A07A50194010E942B07DA01C9018C0DF5
:100D60009D1DAE1DBF1D0E948C0066E470E080E0FA
:100D700090E00E947A018091230258E8C52ED12C80
:100D8000C81AD10887FDD394CC0CDD1CCC0CDD1C1B
:100D90000D2C000CEE08FF088091240228E532E0BB
:100DA000281B310987FD3395220F331F220F331F74
:100DB000032E000C440B550B2C193D094E095F09FD
:100DC000A8E2B0E00E944A07A50194010E942B0707
:100DD000DA01C9018C0D9D1DAE1DBF1D0E948C0046
:100DE00066E470E080E090E00E947A0180E090E0AC
:100DF000892B09F4C4CE0E941602882309F4BCCEC4
:100E00000E940000B9CEA701960119A2CE018196D9
:100E10007C01CA01B901A30192010E945507605DDE
:100E2000F70162937F01211531054105510589F7CD
:100E300011CF90E080E041CF232B09F050CF892BD8
:100E400009F04DCF81E090E09093540180935301DD
:100E50008BE391E042CF052E97FB1EF400940E9495
:100E6000420757FD07D00E94550707FC03D04EF4F8
:100E70000C94420750954095309521953F4F4F4F28
:100E80005F4F089590958095709561957F4F8F4F36
:100E90009F4F08950E947707A59F900DB49F900DD6
:100EA000A49F800D911D11240895A1E21A2EAA1B62
:100EB000BB1BFD010DC0AA1FBB1FEE1FFF1FA2170A
:100EC000B307E407F50720F0A21BB30BE40BF50B07
:100ED000661F771F881F991F1A9469F76095709590
:100EE000809590959B01AC01BD01CF010895A29F13
:100EF000B001B39FC001A39F700D811D1124911DEE
:100F0000B29F700D811D1124911D08950E948D07BF
:100F10006894B1110C941C0808950E94010888F08F
:100F20009F5798F0B92F9927B751B0F0E1F0660FAD
:100F3000771F881F991F1AF0BA95C9F714C0B130EE
:100F400091F00E941B08B1E008950C941B08672FD4
:100F5000782F8827B85F39F0B93FCCF3869577951D
:100F60006795B395D9F73EF4909580957095619506
:100F70007F4F8F4F9F4F0895E89409C097FB3EF431
:100F800090958095709561957F4F8F4F9F4F9923D6
:100F9000A9F0F92F96E9BB279395F6958795779554
:100FA0006795B795F111F8CFFAF4BB0F11F460FF14
:100FB0001BC06F5F7F4F8F4F9F4F16C0882311F06C
:100FC00096E911C0772321F09EE8872F762F05C080
:100FD000662371F096E8862F70E060E02AF09A951B
:100FE000660F771F881FDAF7880F9695879597F910
:100FF000089557FD9058440F551F59F05F3F71F009
:101000004795880F97FB991F61F09F3F79F087956F
:101010000895121613061406551FF2CF4695F1DFF8
:1010200008C0161617061806991FF1CF8695710588
:10103000610508940895E894BB2766277727CB01BC
:1010400097F908950E9435080C94A6080E94980804
:1010500038F00E949F0820F0952311F00C948F081F
:101060000C94950811240C941C080E94F90770F345
:10107000959FC1F3950F50E0551F629FF001729F3D
:10108000BB27F00DB11D639FAA27F00DB11DAA1F4C
:10109000649F6627B00DA11D661F829F2227B00D99
:1010A000A11D621F739FB00DA11D621F839FA00D24
:1010B000611D221F749F3327A00D611D231F849F74
:1010C000600D211D822F762F6A2F11249F575040CB
:1010D0009AF0F1F088234AF0EE0FFF1FBB1F661F46
:1010E000771F881F91505040A9F79E3F510580F00F
:1010F0000C948F080C941C085F3FE4F3983ED4F3E3
:10110000869577956795B795F795E7959F5FC1F7B2
:10111000FE2B880F911D9695879597F9089597F95D
:101120009F6780E870E060E008959FEF80EC08958D
:1011300000240A94161617061806090608950024B6
:101140000A9412161306140605060895092E039430
:10115000000C11F4882352F0BB0F40F4BF2B11F4A4
:1011600060FF04C06F5F7F4F8F4F9F4F0895991BA3
:1011700079E004C0991F961708F0961B881F7A958E
:10118000C9F780950895EE0FFF1F0590F491E02DAB
:101190000994F894FFCF000000004C02AC01D90183
:1011A00099020A02E801FC0144697374616E636587
:1011B0003A2000636D000D0A00627574746F6E2032
:1011C0006973206E6F7720554E7072657373656416
:1011D00000627574746F6E206973206E6F77207073
:0811E000726573736564000081
:107E0000112484B714BE81FFF0D085E080938100F7
:107E100082E08093C00088E18093C10086E0809377
:107E2000C20080E18093C4008EE0C9D0259A86E02C
:107E300020E33CEF91E0309385002093840096BBD3
:107E4000B09BFECF1D9AA8958150A9F7CC24DD24C4
:107E500088248394B5E0AB2EA1E19A2EF3E0BF2EE7
:107E6000A2D0813461F49FD0082FAFD0023811F036
:107E7000013811F484E001C083E08DD089C08234E0
:107E800011F484E103C0853419F485E0A6D080C0E4
:107E9000853579F488D0E82EFF2485D0082F10E0AE
:107EA000102F00270E291F29000F111F8ED06801E7
:107EB0006FC0863521F484E090D080E0DECF843638
:107EC00009F040C070D06FD0082F6DD080E0C81688
:107ED00080E7D80618F4F601B7BEE895C0E0D1E017
:107EE00062D089930C17E1F7F0E0CF16F0E7DF06D8
:107EF00018F0F601B7BEE89568D007B600FCFDCFD4
:107F0000A601A0E0B1E02C9130E011968C91119780
:107F100090E0982F8827822B932B1296FA010C0160
:107F200087BEE89511244E5F5F4FF1E0A038BF0790
:107F300051F7F601A7BEE89507B600FCFDCF97BE46
:107F4000E89526C08437B1F42ED02DD0F82E2BD052
:107F50003CD0F601EF2C8F010F5F1F4F84911BD097
:107F6000EA94F801C1F70894C11CD11CFA94CF0C13
:107F7000D11C0EC0853739F428D08EE10CD085E9AC
:107F80000AD08FE07ACF813511F488E018D01DD067
:107F900080E101D065CF982F8091C00085FFFCCF94
:107FA0009093C60008958091C00087FFFCCF809118
:107FB000C00084FD01C0A8958091C6000895E0E648
:107FC000F0E098E1908380830895EDDF803219F02E
:107FD00088E0F5DFFFCF84E1DECF1F93182FE3DFCA
:107FE0001150E9F7F2DF1F91089580E0E8DFEE27F6
:047FF000FF270994CA
:027FFE00040479
:00000001FF
